:020000040800F2
:1000000000000120050300080B030008110300088D
:1000100033030008390300085B03000800000000F8
:100020000000000000000000000000007D03000848
:100030008303000800000000890300088F03000804
:10004000AD030008AD030008AD030008AD030008D0
:10005000AD030008AD030008AD030008AD030008C0
:10006000AD030008AD030008AD030008AD030008B0
:10007000AD030008AD030008AD030008AD030008A0
:10008000AD030008AD030008AD0300080000000048
:10009000000000000000000000000000AD030008A8
:1000A000AD030008AD030008AD030008AD03000870
:1000B000AD030008AD030008AD030008AD03000860
:1000C000AD030008AD030008AD030008AD03000850
:1000D000AD030008AD030008AD03000800000000F8
:1000E000AD030008AD030008AD03000800000000E8
:1000F000000000000000000000000000AD03000848
:1001000000000000AD030008AD030008AD030008C7
:1001100000000000000000000000000000000000DF
:10012000AD030008AD030008AD030008AD030008EF
:10013000AD03000800000000000000000000000007
:10014000000000000000000000000000AD030008F7
:10015000AD030008AD030008AD030008AD030008BF
:10016000AD030008AD03000800000000000000001F
:10017000000000000000000000000000000000007F
:1001800000000000AD0300080000000000000000B7
:10019000AD03000880B596B000AF00F037F94F4BC3
:1001A0007B6524E07B6D1A1D7A651B683B647B6D63
:1001B0001A1D7A651B68FB637B6D1A1D7A651B68C7
:1001C000BB633B6C7B63FB6B3B63BB6BFB623B6B5F
:1001D000BB6207E07A6B131D7B63BB6A191DB962B2
:1001E00012681A60FA6ABB6A9A42F3D800BF7B6D44
:1001F0003B4A9342D6D33B4B3B651AE03B6D1A1DFD
:100200003A651B68BB643B6D1A1D3A651B687B64CD
:10021000BB6C7B627B6C3B627B6AFB6104E0FB69CD
:100220001A1DFA6100221A603A6AFB699A42F6D8EE
:1002300000BF3B6D2C4A9342E0D300F0F5F83A1D25
:1002400007F108031146184600F0CEF8274A284B5C
:10025000D31A9B103B610023FB6007E0244AFB6834
:1002600052F823309847FB680133FB603A69FB681A
:100270009A42F3DC1F4A204BD31A9B103B610023A8
:10028000FB6007E01C4AFB6852F823309847FB6884
:100290000133FB603A69FB689A42F3DC00BFBB683C
:1002A0007A681146184600F06BF9F864134A144B4B
:1002B000D31A9B10BB61BB697B6108E07B69013B82
:1002C0000F4A52F8233098477B69013B7B617B6979
:1002D000002BF3DC00BFF86C00F080F8B4030008DA
:1002E000CC030008CC030008DC030008DC03000892
:1002F000DC030008DC030008DC030008DC03000862
:10030000DC0300082548004700BF80B400AFFEE7CB
:100310001EF0040F0CBFEFF30880EFF30980714665
:100320001F4A104700BF80B483B000AF78603960C7
:10033000FEE780B400AFFEE71EF0040F0CBFEFF342
:100340000880EFF309807146164A104700BF80B459
:1003500083B000AF78603960FEE71EF0040F0CBF79
:10036000EFF30880EFF3098071460F4A104700BF92
:1003700080B483B000AF78603960FEE780B400AF2E
:10038000FEE780B400AFFEE780B400AFFEE780B4C4
:1003900000AF00BFBD4680BC70470000950100085B
:1003A000270300084F0300087103000880B400AF62
:0203B000FEE766
:1003B400680D00080000002030000020680D0008CF
:1003C4000000001000000010300000203400002065
:0803D400000000100000001001
:1003DC0080B582B000AF786000F03CF880B483B098
:1003EC0000AF786039607B6801221A603B68034A71
:1003FC001A6000BF0C37BD4680BC7047000000205F
:10040C0080B500AF00F02AF8024B034A9A6000BF97
:10041C0080BD00BF00ED00E00000000880B500AF1B
:10042C0000F028F800BF80BD80B400AFBFF34F8F41
:10043C0000BF064BDB6803F4E0620449044B134332
:10044C00CB60BFF34F8F00BF00BFFDE700ED00E0B6
:10045C000400FA0580B500AFFFF7E6FF80B400AFEB
:10046C00034B4FF000629A6000BFBD4680BC7047E2
:10047C0000ED00E080B487B000AF00233B610023A7
:10048C007B610223FB600023BB6002237B60344B47
:10049C009B6803F00C033B613B69082B11D03B6953
:1004AC00082B44D83B69002B03D03B69042B04D0A8
:1004BC003DE02C4B2C4A1A603DE02A4B2B4A1A602B
:1004CC0039E0274B5B689B0D03F00103BB60244BA9
:1004DC005B6803F03F037B60BB68002B0CD0234AA6
:1004EC007B68B2FBF3F31E4A52689209C2F308020E
:1004FC0002FB03F37B610BE01B4A7B68B2FBF3F35B
:10050C00174A52689209C2F3080202FB03F37B619B
:10051C00134B5B681B0C03F0030301335B00FB60A4
:10052C007A69FB68B2FBF3F30E4A136003E00D4BE0
:10053C000D4A1A6000BF0A4B9B681B0903F00F039E
:10054C000B4AD35C3B61074B1A683B6922FA03F3F5
:10055C00044A136000BF1C37BD4680BC704700BF07
:10056C0000380240080000200024F40000127A0039
:10057C00580D000880B582B000AF00F01DFA0020C5
:10058C0000F028FA012000F025FA00F077FA002399
:10059C007B6000237B6009E07B68D9B200230122D9
:1005AC00412000F003FB7B6801337B607B68062BEA
:1005BC00F2D900F089FAFCE780B58CB000AF00F0FE
:1005CC00E9FA034687F82F3097F92F30092B00F200
:1005DC00ED8101A252F823F00D0600086B0600080D
:1005EC00C90600082707000885070008E30700086C
:1005FC00410800089F080008FD0800085B09000876
:10060C0001220021412000F041FB01220121412067
:10061C0000F03CFB01220221412000F037FB0122BB
:10062C000321412000F032FB01220421412000F083
:10063C002DFB01220521412000F028FB0022062180
:10064C00412000F023FB0023BB6202E0BB6A0133B4
:10065C00BB62BB6A42F20F729342F7D9A7E1002248
:10066C000021412000F012FB01220121412000F069
:10067C000DFB01220221412000F008FB0022032186
:10068C00412000F003FB00220421412000F0FEFA7F
:10069C0000220521412000F0F9FA00220621412018
:1006AC0000F0F4FA00237B6202E07B6A01337B6288
:1006BC007B6A42F20F729342F7D978E10122002152
:1006CC00412000F0E3FA01220121412000F0DEFA82
:1006DC0000220221412000F0D9FA012203214120FD
:1006EC0000F0D4FA01220421412000F0CFFA0022BC
:1006FC000521412000F0CAFA01220621412000F018
:10070C00C5FA00233B6202E03B6A01333B623B6A61
:10071C0042F20F729342F7D949E1012200214120A4
:10072C0000F0B4FA01220121412000F0AFFA0122BD
:10073C000221412000F0AAFA01220321412000F0FD
:10074C00A5FA00220421412000F0A0FA0022052184
:10075C00412000F09BFA01220621412000F096FA7C
:10076C000023FB6102E0FB690133FB61FB6942F290
:10077C000F729342F7D91AE100220021412000F0B8
:10078C0085FA01220121412000F080FA0122022188
:10079C00412000F07BFA00220321412000F076FA80
:1007AC0000220421412000F071FA01220521412090
:1007BC0000F06CFA01220621412000F067FA0023B8
:1007CC00BB6102E0BB690133BB61BB6942F20F72D2
:1007DC009342F7D9EBE001220021412000F056FAB8
:1007EC0000220121412000F051FA01220221412076
:1007FC0000F04CFA01220321412000F047FA0022BC
:10080C000421412000F042FA01220521412000F090
:10081C003DFA01220621412000F038FA00237B61C9
:10082C0002E07B6901337B617B6942F20F72934278
:10083C00F7D9BCE001220021412000F027FA002268
:10084C000121412000F022FA01220221412000F076
:10085C001DFA01220321412000F018FA0122042183
:10086C00412000F013FA01220521412000F00EFA7C
:10087C0001220621412000F009FA00233B6102E02D
:10088C003B6901333B613B6942F20F729342F7D9EA
:10089C008DE001220021412000F0F8F90122012114
:1008AC00412000F0F3F901220221412000F0EEF981
:1008BC0000220321412000F0E9F90022042141200B
:1008CC0000F0E4F900220521412000F0DFF90022BC
:1008DC000621412000F0DAF90023FB6002E0FB68FE
:1008EC000133FB60FB6842F20F729342F7D95EE072
:1008FC0001220021412000F0C9F9012201214120EF
:10090C0000F0C4F901220221412000F0BFF90122BC
:10091C000321412000F0BAF901220421412000F00A
:10092C00B5F901220521412000F0B0F90122062180
:10093C00412000F0ABF90023BB6002E0BB6801333F
:10094C00BB60BB6842F20F729342F7D92FE00122D1
:10095C000021412000F09AF901220121412000F0F0
:10096C0095F901220221412000F090F90122032186
:10097C00412000F08BF900220421412000F086F97F
:10098C0001220521412000F081F90122062141209C
:10099C0000F07CF900237B6002E07B6801337B6014
:1009AC007B6842F20F729342F7D900E000BF00BFA0
:1009BC003037BD4680BD00BF80B400AF044B1B6810
:1009CC00034A43F00103136000BFBD4680BC70476F
:1009DC000038024080B485B000AF0346FB71FB7950
:1009EC005B09FB73FB7903F01F03BB73FB7B032BCE
:1009FC0036D801A252F823F0150A00082B0A000879
:100A0C00410A0008570A0008184B1B68BA7B0121E1
:100A1C0001FA02F21146154A0B43136021E0144B04
:100A2C001B68BA7B012101FA02F21146104A0B43F2
:100A3C00136016E00F4B1B68BA7B012101FA02F21E
:100A4C0011460C4A0B4313600BE00B4B1B68BA7B33
:100A5C00012101FA02F21146074A0B43136000E030
:100A6C0000BF00BF1437BD4680BC70473038024011
:100A7C0034380240403802404438024080B582B0DD
:100A8C0000AF0823FB7108E0F97901230022422012
:100A9C0000F08CF8FB790133FB71FB790A2BF3D94D
:100AAC000023BB7108E0B97900230122422000F039
:100ABC007DF8BB790133BB71BB79032BF3D900BF34
:100ACC0000BF0837BD4680BD80B582B000AF0023A3
:100ADC00FB714EE00023BB710BE0BB79294AD35666
:100AEC00DBB201221946422000F0D0F8BB79013369
:100AFC00BB71BB79032BF0D9FB79224AD356DBB2FD
:100B0C0000221946422000F0C1F800237B712AE034
:100B1C007B791D4AD356DBB21946422000F0F4F81B
:100B2C0003463B7197F90430002B19D100BF7B7938
:100B3C00154AD356DBB21946422000F0E5F80346BD
:100B4C00002BF4D0FA797979104813465B001344E2
:100B5C0003440B4493F900200D4B1A70FFF72CFD46
:100B6C007B7901337B717B79022BD1D9FB790133F2
:100B7C00FB71FB79032BADD900BF00BF0837BD4615
:100B8C0080BD00BF0C0000201000002014000020CD
:100B9C003100002080B400AF034B93F90030DBB27E
:100BAC001846BD4680BC70473100002090B484B01C
:100BBC0000AF0446084611461A462346FB7103460D
:100BCC00BB710B467B7113463B71FB79413BFB734D
:100BDC00FB7B224A52F82330BB60BB681B68BA7996
:100BEC005200032101FA02F2D2431A40BB681A6088
:100BFC00BB681B687979BA79520001FA02F21A4380
:100C0C00BB681A60BB685B68BA79012101FA02F211
:100C1C00D2431A40BB685A60BB685B683979BA79B1
:100C2C0001FA02F21A43BB685A60BB68DB68BA79F6
:100C3C00032101FA02F2D2431A40BB68DA60BB68A6
:100C4C00DB683979BA7901FA02F21A43BB68DA60C7
:100C5C0000BF1037BD4690BC704700BF200000207D
:100C6C0080B485B000AF0346FB71FB79413BFB734D
:100C7C00FB7B054A52F82330BB60BB681B681846E7
:100C8C001437BD4680BC70472000002080B586B06C
:100C9C0000AF0346FB710B46BB7113467B71FB79AE
:100CAC001846FFF7DDFF7861BB795B007A6922FAA1
:100CBC0003F3DBB203F00303FB74FB79413BBB741E
:100CCC00BB7C104A52F82330FB60FB7C012B14D107
:100CDC00FB685B69BA79012101FA02F2D2431A402E
:100CEC00FB685A61FB685B697979BA7901FA02F29F
:100CFC001A43FB685A61002300E001231846183799
:100D0C00BD4680BD2000002080B487B000AF0346F4
:100D1C000A46FB711346BB71FB79413BFB75FB7DAE
:100D2C00094A52F823303B613B691A69BB7922FAB4
:100D3C0003F3DBB203F00103FB73FB7B18461C3798
:100D4C00BD4680BC704700BF2000002000000000A2
:0C0D5C0000000000010203040607080963
:100D680030000020000000000024F400000102030D
:100D780008090AFF01020304050607080900000024
:100D8800000002400004024000080240000C02403B
:040000050800019559
:00000001FF
