:020000040800F2
:1000000000000120050300080B030008110300088D
:1000100033030008390300085B03000800000000F8
:100020000000000000000000000000007D03000848
:100030008303000800000000890300088F03000804
:10004000AD030008AD030008AD030008AD030008D0
:10005000AD030008AD030008AD03000875090008F2
:10006000AD030008AD03000859090008AD030008FE
:10007000AD030008AD030008AD030008AD030008A0
:10008000AD030008AD030008AD0300080000000048
:100090000000000000000000000000003D09000812
:1000A000AD030008AD030008AD030008AD03000870
:1000B000AD030008AD030008AD030008AD03000860
:1000C000AD030008AD030008AD030008AD03000850
:1000D000AD030008AD030008AD03000800000000F8
:1000E000AD030008AD030008AD03000800000000E8
:1000F000000000000000000000000000AD03000848
:1001000000000000AD030008AD030008AD030008C7
:1001100000000000000000000000000000000000DF
:10012000AD030008AD030008AD030008AD030008EF
:10013000AD03000800000000000000000000000007
:10014000000000000000000000000000AD030008F7
:10015000AD030008AD030008AD030008AD030008BF
:10016000AD030008AD03000800000000000000001F
:10017000000000000000000000000000000000007F
:1001800000000000AD0300080000000000000000B7
:10019000AD03000880B596B000AF00F037F94F4BC3
:1001A0007B6524E07B6D1A1D7A651B683B647B6D63
:1001B0001A1D7A651B68FB637B6D1A1D7A651B68C7
:1001C000BB633B6C7B63FB6B3B63BB6BFB623B6B5F
:1001D000BB6207E07A6B131D7B63BB6A191DB962B2
:1001E00012681A60FA6ABB6A9A42F3D800BF7B6D44
:1001F0003B4A9342D6D33B4B3B651AE03B6D1A1DFD
:100200003A651B68BB643B6D1A1D3A651B687B64CD
:10021000BB6C7B627B6C3B627B6AFB6104E0FB69CD
:100220001A1DFA6100221A603A6AFB699A42F6D8EE
:1002300000BF3B6D2C4A9342E0D300F0F5F83A1D25
:1002400007F108031146184600F0CEF8274A284B5C
:10025000D31A9B103B610023FB6007E0244AFB6834
:1002600052F823309847FB680133FB603A69FB681A
:100270009A42F3DC1F4A204BD31A9B103B610023A8
:10028000FB6007E01C4AFB6852F823309847FB6884
:100290000133FB603A69FB689A42F3DC00BFBB683C
:1002A0007A681146184600F0C3FAF864134A144BF2
:1002B000D31A9B10BB61BB697B6108E07B69013B82
:1002C0000F4A52F8233098477B69013B7B617B6979
:1002D000002BF3DC00BFF86C00F080F8B4030008DA
:1002E000CC030008CC030008DC030008DC03000892
:1002F000DC030008DC030008DC030008DC03000862
:10030000DC0300082548004700BF80B400AFFEE7CB
:100310001EF0040F0CBFEFF30880EFF30980714665
:100320001F4A104700BF80B483B000AF78603960C7
:10033000FEE780B400AFFEE71EF0040F0CBFEFF342
:100340000880EFF309807146164A104700BF80B459
:1003500083B000AF78603960FEE71EF0040F0CBF79
:10036000EFF30880EFF3098071460F4A104700BF92
:1003700080B483B000AF78603960FEE780B400AF2E
:10038000FEE780B400AFFEE780B400AFFEE780B4C4
:1003900000AF00BFBD4680BC70470000950100085B
:1003A000270300084F0300087103000880B400AF62
:0203B000FEE766
:1003B400D40D00080000002034000020D40D0008F3
:1003C4000000001000000010340000203C00002059
:0803D400000000100000001001
:1003DC0080B582B000AF786000F03CF880B483B098
:1003EC0000AF786039607B6801221A603B68034A71
:1003FC001A6000BF0C37BD4680BC7047000000205F
:10040C0080B500AF00F02AF8024B034A9A6000BF97
:10041C0080BD00BF00ED00E00000000880B500AF1B
:10042C0000F028F800BF80BD80B400AFBFF34F8F41
:10043C0000BF064BDB6803F4E0620449044B134332
:10044C00CB60BFF34F8F00BF00BFFDE700ED00E0B6
:10045C000400FA0580B500AFFFF7E6FF80B400AFEB
:10046C00034B4FF000629A6000BFBD4680BC7047E2
:10047C0000ED00E080B487B000AF00233B610023A7
:10048C007B610223FB600023BB6002237B60344B47
:10049C009B6803F00C033B613B69082B11D03B6953
:1004AC00082B44D83B69002B03D03B69042B04D0A8
:1004BC003DE02C4B2C4A1A603DE02A4B2B4A1A602B
:1004CC0039E0274B5B689B0D03F00103BB60244BA9
:1004DC005B6803F03F037B60BB68002B0CD0234AA6
:1004EC007B68B2FBF3F31E4A52689209C2F308020E
:1004FC0002FB03F37B610BE01B4A7B68B2FBF3F35B
:10050C00174A52689209C2F3080202FB03F37B619B
:10051C00134B5B681B0C03F0030301335B00FB60A4
:10052C007A69FB68B2FBF3F30E4A136003E00D4BE0
:10053C000D4A1A6000BF0A4B9B681B0903F00F039E
:10054C000B4AD35C3B61074B1A683B6922FA03F3F5
:10055C00044A136000BF1C37BD4680BC704700BF07
:10056C0000380240080000200024F40000127A0039
:10057C00C40D000880B582B000AF00237B6009E099
:10058C007B68D9B200230122442000F0C1FA7B68B9
:10059C0001337B607B68062BF2D9022300220921F0
:1005AC00412000F0B5FA022300220421422000F081
:1005BC00AFFA00BF0837BD4680BD000080B584B0DF
:1005CC0000AF78600023FB6009E0FB68DBB200221F
:1005DC001946442000F012FBFB680133FB60FB68FA
:1005EC00062BF2D97B68092B00F2178101A252F875
:1005FC0023F000BF29060008670600087D060008E6
:10060C00B1060008E50600080F07000843070008BC
:10061C0081070008A1070008E90700080122002152
:10062C00442000F0EBFA01220121442000F0E6FA0C
:10063C0001220221442000F0E1FA0122032144208E
:10064C0000F0DCFA01220421442000F0D7FA012248
:10065C000521442000F0D2FAE0E0012201214420DF
:10066C0000F0CCFA01220221442000F0C7FAD5E0B8
:10067C0001220021442000F0C1FA01220121442072
:10068C0000F0BCFA01220321442000F0B7FA012249
:10069C000421442000F0B2FA01220621442000F08B
:1006AC00ADFABBE001220021442000F0A7FA0122A0
:1006BC000121442000F0A2FA01220221442000F082
:1006CC009DFA01220321442000F098FA0122062110
:1006DC00442000F093FAA1E001220121442000F013
:1006EC008DFA01220221442000F088FA0122052112
:1006FC00442000F083FA01220621442000F07EFA07
:10070C008CE001220021442000F078FA0122022121
:10071C00442000F073FA01220321442000F06EFA09
:10072C0001220521442000F069FA0122062144200F
:10073C0000F064FA72E001220021442000F05EFA1D
:10074C0001220221442000F059FA01220321442005
:10075C0000F054FA01220421442000F04FFA012247
:10076C000521442000F04AFA01220621442000F021
:10077C0045FA53E001220021442000F03FFA012207
:10078C000121442000F03AFA01220221442000F019
:10079C0035FA43E001220021442000F02FFA012217
:1007AC000121442000F02AFA01220221442000F009
:1007BC0025FA01220321442000F020FA0122042111
:1007CC00442000F01BFA01220521442000F016FA07
:1007DC0001220621442000F011FA1FE00122002121
:1007EC00442000F00BFA01220121442000F006FA0B
:1007FC0001220221442000F001FA012203214420AD
:10080C0000F0FCF901220521442000F0F7F9012247
:10081C000621442000F0F2F900E000BF00BF1037C1
:10082C00BD4680BD80B584B000AF00F0CDF800208F
:10083C0000F0D8F8012000F0D5F8032000F0D2F831
:10084C006E2000F0CFF8FFF795FE0A2000F01EF99D
:10085C00172000F01BF91C4B1B681A46092141207C
:10086C0000F008FA184B1B681A460421422000F0CD
:10087C0001FA0023FB60092000F086FA042000F046
:10088C0083FA124B1B68FB60092000F067FA042006
:10089C0000F064FA0023BB6002E0BB680133BB606C
:1008AC00BB680B4A9342F8D9084B1B681846FFF7F4
:1008BC0085FE00237B6002E07B6801337B607B68F4
:1008CC00044A9342F8D9D6E70C00002038000020E7
:1008DC009F8601003F420F0080B400AF084B1B689D
:1008EC00082B05D8064B1B680133054A136002E040
:1008FC00034B00221A6000BFBD4680BC704700BF8E
:10090C003800002080B400AF084B1B68002B05D0CA
:10091C00064B1B68013B054A136002E0034B09229E
:10092C001A6000BFBD4680BC704700BF3800002075
:10093C0080B500AFFFF7D0FF034B5B69024A43F46D
:10094C000073536100BF80BD003C014080B500AF17
:10095C00FFF7D8FF034B5B69024A43F01003536166
:10096C0000BF80BD003C014080B582B000AF0022CA
:10097C000021412000F042F900237B6002E07B68FB
:10098C0001337B607B680E4A9342F8DD0122002123
:10099C00412000F033F900233B6002E03B68013357
:1009AC003B603B68064A9342F8DD064B5B69054A9F
:1009BC0043F00203536100BF0837BD4680BD00BF42
:1009CC003F420F00003C014080B400AF044B1B6859
:1009DC00034A43F00103136000BFBD4680BC70475F
:1009EC000038024080B485B000AF0346FB71FB7940
:1009FC005B09FB73FB7903F01F03BB73FB7B032BBE
:100A0C0036D801A252F823F0250A00083B0A000848
:100A1C00510A0008670A0008184B1B68BA7B0121B1
:100A2C0001FA02F21146154A0B43136021E0144BF4
:100A3C001B68BA7B012101FA02F21146104A0B43E2
:100A4C00136016E00F4B1B68BA7B012101FA02F20E
:100A5C0011460C4A0B4313600BE00B4B1B68BA7B23
:100A6C00012101FA02F21146074A0B43136000E020
:100A7C0000BF00BF1437BD4680BC70473038024001
:100A8C0034380240403802404438024080B483B0CD
:100A9C0000AF0346FB71FB791F2B0AD8194B1B685F
:100AAC00FA79012101FA02F21146164A0B4313603E
:100ABC0022E0FB791F2B0ED9FB793F2B0BD8124B65
:100ACC001B68FA79203A012101FA02F211460E4A0A
:100ADC000B43136010E0FB793F2B0DD9FB795F2B97
:100AEC000AD80A4B1B68FA79403A012101FA02F242
:100AFC001146064A0B43136000BF0C37BD4680BC41
:100B0C00704700BF00E100E004E100E008E100E014
:100B1C0090B484B000AF0446084611461A462346EA
:100B2C00FB710346BB710B467B7113463B71FB7922
:100B3C00413BFB73FB7B254A52F82330BB60BB68FF
:100B4C001B68BA795200032101FA02F2D2431A400F
:100B5C00BB681A60BB681B687979BA79520001FAD4
:100B6C0002F21A43BB681A607B79012B13D1BB6864
:100B7C005B68BA79012101FA02F2D2431A40BB68D0
:100B8C005A60BB685B683979BA7901FA02F21A4388
:100B9C00BB685A6015E07B79002B12D1BB68DB680F
:100BAC00BA79032101FA02F2D2431A40BB68DA6027
:100BBC00BB68DB683979BA7901FA02F21A43BB686F
:100BCC00DA6000BF1037BD4690BC704710000020A3
:100BDC0080B485B000AF0346FB71FB79413BFB73DE
:100BEC00FB7B054A52F82330BB60BB681B68184678
:100BFC001437BD4680BC70471000002080B586B00D
:100C0C0000AF0346FB710B46BB7113467B71FB793E
:100C1C001846FFF7DDFF7861BB795B007A6922FA31
:100C2C0003F3DBB203F00303FB74FB79413BBB74AE
:100C3C00BB7C0F4A52F82330FB60FB7C012B13D199
:100C4C00FB685B69BA79012101FA02F2D2431A40BE
:100C5C00FB685A61FB685B697979BA7901FA02F22F
:100C6C001A43FB685A6100E000BF1837BD4680BDCF
:100C7C001000002080B485B000AF03463A60FB71D1
:100C8C000B46BB71324B1B683A689A420AD1314B06
:100C9C00DB68BA79012101FA02F211462D4A0B43A5
:100CAC00D36009E02B4B9B68BA79012101FA02F25F
:100CBC001146284A0B439360FB79413B032B17D811
:100CCC0001A252F823F000BFE50C0008EB0C000861
:100CDC00F10C0008F70C00080023FB8109E001234C
:100CEC00FB8106E00223FB8103E00323FB8100E090
:100CFC0000BFBB799B087B73BB7903F003033B7389
:100D0C007B7B154A52F823301A683B7B9B000F21E2
:100D1C0001FA03F3DB4318467B7B0F4951F8233070
:100D2C0002401A607B7B0C4A52F823301A68F9890E
:100D3C003B7B9B0001FA03F318467B7B064951F879
:100D4C00233002431A6000BF1437BD4680BC704785
:100D5C0020000020003C01402400002080B483B01F
:100D6C0000AF0346FB71074B1B68FA79012101FAAE
:100D7C0002F21146034A0B43136000BF0C37BD4609
:100D8C0080BC7047003C014080B483B000AF034688
:100D9C00FB71084B1B68FA79012101FA02F2D2436C
:100DAC001146044A0B40136000BF0C37BD4680BC93
:100DBC00704700BF003C0140000000000000000034
:080DCC000102030406070809F7
:100DD40034000020000000000024F40001000000A2
:100DE400000002400004024000080240000C0240DF
:100DF40001000000083801400C380140103801405F
:040E0400143801405D
:040000050800019559
:00000001FF
