:020000040800F2
:1000000000000120050300080B030008110300088D
:1000100033030008390300085B03000800000000F8
:100020000000000000000000000000007D03000848
:100030008303000800000000890300088F03000804
:10004000AD030008AD030008AD030008AD030008D0
:10005000AD030008AD030008150900087D0900087C
:10006000AD030008AD030008AD030008AD030008B0
:10007000AD030008AD030008AD030008AD030008A0
:10008000AD030008AD030008AD0300080000000048
:10009000000000000000000000000000AD030008A8
:1000A000AD030008AD030008AD030008AD03000870
:1000B000AD030008AD030008AD030008AD03000860
:1000C000AD030008AD030008AD030008AD03000850
:1000D000AD030008AD030008AD03000800000000F8
:1000E000AD030008AD030008AD03000800000000E8
:1000F000000000000000000000000000AD03000848
:1001000000000000AD030008AD030008AD030008C7
:1001100000000000000000000000000000000000DF
:10012000AD030008AD030008AD030008AD030008EF
:10013000AD03000800000000000000000000000007
:10014000000000000000000000000000AD030008F7
:10015000AD030008AD030008AD030008AD030008BF
:10016000AD030008AD03000800000000000000001F
:10017000000000000000000000000000000000007F
:1001800000000000AD0300080000000000000000B7
:10019000AD03000880B596B000AF00F037F94F4BC3
:1001A0007B6524E07B6D1A1D7A651B683B647B6D63
:1001B0001A1D7A651B68FB637B6D1A1D7A651B68C7
:1001C000BB633B6C7B63FB6B3B63BB6BFB623B6B5F
:1001D000BB6207E07A6B131D7B63BB6A191DB962B2
:1001E00012681A60FA6ABB6A9A42F3D800BF7B6D44
:1001F0003B4A9342D6D33B4B3B651AE03B6D1A1DFD
:100200003A651B68BB643B6D1A1D3A651B687B64CD
:10021000BB6C7B627B6C3B627B6AFB6104E0FB69CD
:100220001A1DFA6100221A603A6AFB699A42F6D8EE
:1002300000BF3B6D2C4A9342E0D300F0F5F83A1D25
:1002400007F108031146184600F0CEF8274A284B5C
:10025000D31A9B103B610023FB6007E0244AFB6834
:1002600052F823309847FB680133FB603A69FB681A
:100270009A42F3DC1F4A204BD31A9B103B610023A8
:10028000FB6007E01C4AFB6852F823309847FB6884
:100290000133FB603A69FB689A42F3DC00BFBB683C
:1002A0007A681146184600F0C3FAF864134A144BF2
:1002B000D31A9B10BB61BB697B6108E07B69013B82
:1002C0000F4A52F8233098477B69013B7B617B6979
:1002D000002BF3DC00BFF86C00F080F8B4030008DA
:1002E000CC030008CC030008DC030008DC03000892
:1002F000DC030008DC030008DC030008DC03000862
:10030000DC0300082548004700BF80B400AFFEE7CB
:100310001EF0040F0CBFEFF30880EFF30980714665
:100320001F4A104700BF80B483B000AF78603960C7
:10033000FEE780B400AFFEE71EF0040F0CBFEFF342
:100340000880EFF309807146164A104700BF80B459
:1003500083B000AF78603960FEE71EF0040F0CBF79
:10036000EFF30880EFF3098071460F4A104700BF92
:1003700080B483B000AF78603960FEE780B400AF2E
:10038000FEE780B400AFFEE780B400AFFEE780B4C4
:1003900000AF00BFBD4680BC70470000950100085B
:1003A000270300084F0300087103000880B400AF62
:0203B000FEE766
:1003B400200E0008000000201C000020200E000871
:1003C40000000010000000101C0000202800002085
:0803D400000000100000001001
:1003DC0080B582B000AF786000F03CF880B483B098
:1003EC0000AF786039607B6801221A603B68034A71
:1003FC001A6000BF0C37BD4680BC7047000000205F
:10040C0080B500AF00F02AF8024B034A9A6000BF97
:10041C0080BD00BF00ED00E00000000880B500AF1B
:10042C0000F028F800BF80BD80B400AFBFF34F8F41
:10043C0000BF064BDB6803F4E0620449044B134332
:10044C00CB60BFF34F8F00BF00BFFDE700ED00E0B6
:10045C000400FA0580B500AFFFF7E6FF80B400AFEB
:10046C00034B4FF000629A6000BFBD4680BC7047E2
:10047C0000ED00E080B487B000AF00233B610023A7
:10048C007B610223FB600023BB6002237B60344B47
:10049C009B6803F00C033B613B69082B11D03B6953
:1004AC00082B44D83B69002B03D03B69042B04D0A8
:1004BC003DE02C4B2C4A1A603DE02A4B2B4A1A602B
:1004CC0039E0274B5B689B0D03F00103BB60244BA9
:1004DC005B6803F03F037B60BB68002B0CD0234AA6
:1004EC007B68B2FBF3F31E4A52689209C2F308020E
:1004FC0002FB03F37B610BE01B4A7B68B2FBF3F35B
:10050C00174A52689209C2F3080202FB03F37B619B
:10051C00134B5B681B0C03F0030301335B00FB60A4
:10052C007A69FB68B2FBF3F30E4A136003E00D4BE0
:10053C000D4A1A6000BF0A4B9B681B0903F00F039E
:10054C000B4AD35C3B61074B1A683B6922FA03F3F5
:10055C00044A136000BF1C37BD4680BC704700BF07
:10056C0000380240080000200024F40000127A0039
:10057C00100E000880B582B000AF00237B6009E04C
:10058C007B68D9B200230122412000F0C9FA7B68B4
:10059C0001337B607B68062BF2D9012300220421F6
:1005AC00422000F0BDFA012300220921412000F075
:1005BC00B7FA00BF0837BD4680BD000080B584B0D7
:1005CC0000AF0346FB800023FB6009E0FB68DBB255
:1005DC0000221946412000F013FBFB680133FB603D
:1005EC00FB68062BF2D9FB88092B00F2168101A2BD
:1005FC0052F823F029060008670600087D0600085B
:10060C00B1060008E50600080F07000843070008BC
:10061C0081070008A1070008E90700080122002152
:10062C00412000F0EDFA01220121412000F0E8FA0E
:10063C0001220221412000F0E3FA01220321412092
:10064C0000F0DEFA01220421412000F0D9FA012247
:10065C000521412000F0D4FAE0E0012201214120E3
:10066C0000F0CEFA01220221412000F0C9FAD5E0B7
:10067C0001220021412000F0C3FA01220121412076
:10068C0000F0BEFA01220321412000F0B9FA012248
:10069C000421412000F0B4FA01220621412000F08F
:1006AC00AFFABBE001220021412000F0A9FA01229F
:1006BC000121412000F0A4FA01220221412000F086
:1006CC009FFA01220321412000F09AFA012206210F
:1006DC00412000F095FAA1E001220121412000F017
:1006EC008FFA01220221412000F08AFA0122052111
:1006FC00412000F085FA01220621412000F080FA09
:10070C008CE001220021412000F07AFA0122022122
:10071C00412000F075FA01220321412000F070FA0B
:10072C0001220521412000F06BFA01220621412013
:10073C0000F066FA72E001220021412000F060FA1C
:10074C0001220221412000F05BFA01220321412009
:10075C0000F056FA01220421412000F051FA012246
:10076C000521412000F04CFA01220621412000F025
:10077C0047FA53E001220021412000F041FA012206
:10078C000121412000F03CFA01220221412000F01D
:10079C0037FA43E001220021412000F031FA012216
:1007AC000121412000F02CFA01220221412000F00D
:1007BC0027FA01220321412000F022FA0122042110
:1007CC00412000F01DFA01220521412000F018FA09
:1007DC0001220621412000F013FA1FE00122002122
:1007EC00412000F00DFA01220121412000F008FA0D
:1007FC0001220221412000F003FA012203214120B1
:10080C0000F0FEF901220521412000F0F9F9012246
:10081C000621412000F0F4F900E000BF00BF1037C2
:10082C00BD4680BD80B582B000AF00F0D5F8002089
:10083C0000F0E0F8012000F0DDF86E2000F0DAF8AE
:10084C00144BDB68DBB21A460921412000F016FA82
:10085C00104BDB68DBB21A460421422000F00EFA82
:10086C00042000F0B3FA092000F0B0FAFFF782FE82
:10087C00094B1B689BB21846FFF7A0FE00237B6058
:10088C0002E07B6801337B607B68044A9342F8D9B1
:10089C00EEE700BF003C0140200000203F420F006B
:1008AC0080B400AF094B1B68082B05D8074B1B689D
:1008BC000133064A136002E0044B00221A60044B19
:1008CC0001221A6000BFBD4680BC7047200000208A
:1008DC002400002080B400AF094B1B68002B05D00E
:1008EC00074B1B68013B064A136002E0044B0922CC
:1008FC001A60044B01221A6000BFBD4680BC7047D1
:10090C00200000202400002080B582B000AF144BE2
:10091C005B6903F40073002B1ED0FFF7C1FF114B72
:10092C001B68002B12D0104B1B689BB21846FFF7AC
:10093C0045FE00237B6002E07B6801337B607B68B3
:10094C000A4A9342F8D9074B00221A60044B5B69A0
:10095C00034A43F40073536100BF0837BD4680BDA2
:10096C00003C014024000020200000203F420F00EA
:10097C0080B582B000AF144B5B6903F01003002B01
:10098C001ED0FFF7A7FF114B1B68002B12D0104B8A
:10099C001B689BB21846FFF711FE00237B6002E038
:1009AC007B6801337B607B680A4A9342F8D9074B1A
:1009BC0000221A60044B5B69034A43F01003536135
:1009CC0000BF0837BD4680BD003C0140240000201C
:1009DC00200000203F420F0080B400AF044B1B6886
:1009EC00034A43F00103136000BFBD4680BC70474F
:1009FC000038024080B485B000AF0346FB71FB7930
:100A0C005B09FB73FB7903F01F03BB73FB7B032BAD
:100A1C0036D801A252F823F0350A00084B0A000818
:100A2C00610A0008770A0008184B1B68BA7B012181
:100A3C0001FA02F21146154A0B43136021E0144BE4
:100A4C001B68BA7B012101FA02F21146104A0B43D2
:100A5C00136016E00F4B1B68BA7B012101FA02F2FE
:100A6C0011460C4A0B4313600BE00B4B1B68BA7B13
:100A7C00012101FA02F21146074A0B43136000E010
:100A8C0000BF00BF1437BD4680BC704730380240F1
:100A9C0034380240403802404438024080B483B0BD
:100AAC0000AF0346FB71FB791F2B0AD8194B1B684F
:100ABC00FA79012101FA02F21146164A0B4313602E
:100ACC0022E0FB791F2B0ED9FB793F2B0BD8124B55
:100ADC001B68FA79203A012101FA02F211460E4AFA
:100AEC000B43136010E0FB793F2B0DD9FB795F2B87
:100AFC000AD80A4B1B68FA79403A012101FA02F232
:100B0C001146064A0B43136000BF0C37BD4680BC30
:100B1C00704700BF00E100E004E100E008E100E004
:100B2C0090B484B000AF0446084611461A462346DA
:100B3C00FB710346BB710B467B7113463B71FB7912
:100B4C00413BFB73FB7B224A52F82330BB60BB68F2
:100B5C001B68BA795200032101FA02F2D2431A40FF
:100B6C00BB681A60BB681B687979BA79520001FAC4
:100B7C0002F21A43BB681A60BB685B68BA79012140
:100B8C0001FA02F2D2431A40BB685A60BB685B6838
:100B9C003979BA7901FA02F21A43BB685A60BB6818
:100BAC00DB68BA79032101FA02F2D2431A40BB681E
:100BBC00DA60BB68DB683979BA7901FA02F21A4358
:100BCC00BB68DA6000BF1037BD4690BC704700BFF1
:100BDC000C00002080B485B000AF0346FB71FB799C
:100BEC00413BFB73FB7B054A52F82330BB60BB686F
:100BFC001B6818461437BD4680BC70470C0000209B
:100C0C0080B586B000AF0346FB710B46BB71134633
:100C1C007B71FB791846FFF7DDFF7861BB795B00D0
:100C2C007A6922FA03F3DBB203F00303FB74FB795A
:100C3C00413BBB74BB7C104A52F82330FB60FB7CFD
:100C4C00012B14D1FB685B69BA79012101FA02F21C
:100C5C00D2431A40FB685A61FB685B697979BA79AF
:100C6C0001FA02F21A43FB685A61002300E00123E7
:100C7C0018461837BD4680BD0C00002080B485B0E6
:100C8C0000AF0346FB710B46BB7113467B71FB79BE
:100C9C00413B032B16D801A252F823F0B90C0008E3
:100CAC00BF0C0008C50C0008CB0C00080023FB810E
:100CBC0009E00123FB8106E00823FB8103E0092303
:100CCC00FB8100E000BFBB79032B17D83E4B1B68A0
:100CDC00BA7992000F2101FA02F2D24311463A4A34
:100CEC000B401360384B1B68F989BA79920001FAF2
:100CFC0002F21146344A0B43136055E0BB79072BC3
:100D0C0019D8314B5B68BA79043A92000F2101FA79
:100D1C0002F2D24311462C4A0B4053602A4B5B68BB
:100D2C00F989BA79043A920001FA02F21146264A7C
:100D3C000B43536038E0BB790B2B19D8224B9B68C3
:100D4C00BA79083A92000F2101FA02F2D243114605
:100D5C001D4A0B4093601C4B9B68F989BA79083A81
:100D6C00920001FA02F21146174A0B4393601BE002
:100D7C00BB790F2B18D8144BDB68BA790C3A92005C
:100D8C000F2101FA02F2D24311460F4A0B40D360F5
:100D9C000D4BDB68F989BA790C3A920001FA02F230
:100DAC001146094A0B43D360BB79012202FA03F3C3
:100DBC005AB297F9053013435BB27B7100BF1437FD
:100DCC00BD4680BC704700BF0038014080B582B082
:100DDC0000AF0346FB710A4B1B68FA79012101FA3B
:100DEC0002F21146064A0B431360FB790633DBB261
:100DFC001846FFF753FE00BF0837BD4680BD00BF45
:100E0C00003C01400000000000000000010203044F
:040E1C0006070809B4
:100E20001C000020000000000024F400000002402C
:0C0E30000004024000080240000C0240D8
:040000050800019559
:00000001FF
