:020000040800F2
:1000000000000120050300080B030008110300088D
:1000100033030008390300085B03000800000000F8
:100020000000000000000000000000007D03000848
:100030008303000800000000890300088F03000804
:10004000AD030008AD030008AD030008AD030008D0
:10005000AD030008AD030008AD030008AD030008C0
:10006000AD030008AD03000825090008AD03000832
:10007000AD030008AD030008AD030008AD030008A0
:10008000AD030008AD030008AD0300080000000048
:100090000000000000000000000000000909000846
:1000A000AD030008AD030008AD030008AD03000870
:1000B000AD030008AD030008AD030008AD03000860
:1000C000AD030008AD030008AD030008AD03000850
:1000D000AD030008AD030008AD03000800000000F8
:1000E000AD030008AD030008AD03000800000000E8
:1000F000000000000000000000000000AD03000848
:1001000000000000AD030008AD030008AD030008C7
:1001100000000000000000000000000000000000DF
:10012000AD030008AD030008AD030008AD030008EF
:10013000AD03000800000000000000000000000007
:10014000000000000000000000000000AD030008F7
:10015000AD030008AD030008AD030008AD030008BF
:10016000AD030008AD03000800000000000000001F
:10017000000000000000000000000000000000007F
:1001800000000000AD0300080000000000000000B7
:10019000AD03000880B596B000AF00F037F94F4BC3
:1001A0007B6524E07B6D1A1D7A651B683B647B6D63
:1001B0001A1D7A651B68FB637B6D1A1D7A651B68C7
:1001C000BB633B6C7B63FB6B3B63BB6BFB623B6B5F
:1001D000BB6207E07A6B131D7B63BB6A191DB962B2
:1001E00012681A60FA6ABB6A9A42F3D800BF7B6D44
:1001F0003B4A9342D6D33B4B3B651AE03B6D1A1DFD
:100200003A651B68BB643B6D1A1D3A651B687B64CD
:10021000BB6C7B627B6C3B627B6AFB6104E0FB69CD
:100220001A1DFA6100221A603A6AFB699A42F6D8EE
:1002300000BF3B6D2C4A9342E0D300F0F5F83A1D25
:1002400007F108031146184600F0CEF8274A284B5C
:10025000D31A9B103B610023FB6007E0244AFB6834
:1002600052F823309847FB680133FB603A69FB681A
:100270009A42F3DC1F4A204BD31A9B103B610023A8
:10028000FB6007E01C4AFB6852F823309847FB6884
:100290000133FB603A69FB689A42F3DC00BFBB683C
:1002A0007A681146184600F0C5FAF864134A144BF0
:1002B000D31A9B10BB61BB697B6108E07B69013B82
:1002C0000F4A52F8233098477B69013B7B617B6979
:1002D000002BF3DC00BFF86C00F080F8B4030008DA
:1002E000CC030008CC030008DC030008DC03000892
:1002F000DC030008DC030008DC030008DC03000862
:10030000DC0300082548004700BF80B400AFFEE7CB
:100310001EF0040F0CBFEFF30880EFF30980714665
:100320001F4A104700BF80B483B000AF78603960C7
:10033000FEE780B400AFFEE71EF0040F0CBFEFF342
:100340000880EFF309807146164A104700BF80B459
:1003500083B000AF78603960FEE71EF0040F0CBF79
:10036000EFF30880EFF3098071460F4A104700BF92
:1003700080B483B000AF78603960FEE780B400AF2E
:10038000FEE780B400AFFEE780B400AFFEE780B4C4
:1003900000AF00BFBD4680BC70470000950100085B
:1003A000270300084F0300087103000880B400AF62
:0203B000FEE766
:1003B400440D00080000002028000020440D00081F
:1003C4000000001000000010280000203000002071
:0803D400000000100000001001
:1003DC0080B582B000AF786000F03CF880B483B098
:1003EC0000AF786039607B6801221A603B68034A71
:1003FC001A6000BF0C37BD4680BC7047000000205F
:10040C0080B500AF00F02AF8024B034A9A6000BF97
:10041C0080BD00BF00ED00E00000000880B500AF1B
:10042C0000F028F800BF80BD80B400AFBFF34F8F41
:10043C0000BF064BDB6803F4E0620449044B134332
:10044C00CB60BFF34F8F00BF00BFFDE700ED00E0B6
:10045C000400FA0580B500AFFFF7E6FF80B400AFEB
:10046C00034B4FF000629A6000BFBD4680BC7047E2
:10047C0000ED00E080B487B000AF00233B610023A7
:10048C007B610223FB600023BB6002237B60344B47
:10049C009B6803F00C033B613B69082B11D03B6953
:1004AC00082B44D83B69002B03D03B69042B04D0A8
:1004BC003DE02C4B2C4A1A603DE02A4B2B4A1A602B
:1004CC0039E0274B5B689B0D03F00103BB60244BA9
:1004DC005B6803F03F037B60BB68002B0CD0234AA6
:1004EC007B68B2FBF3F31E4A52689209C2F308020E
:1004FC0002FB03F37B610BE01B4A7B68B2FBF3F35B
:10050C00174A52689209C2F3080202FB03F37B619B
:10051C00134B5B681B0C03F0030301335B00FB60A4
:10052C007A69FB68B2FBF3F30E4A136003E00D4BE0
:10053C000D4A1A6000BF0A4B9B681B0903F00F039E
:10054C000B4AD35C3B61074B1A683B6922FA03F3F5
:10055C00044A136000BF1C37BD4680BC704700BF07
:10056C0000380240080000200024F40000127A0039
:10057C00340D000880B582B000AF00237B6009E029
:10058C007B68D9B200230122412000F05BFA7B6822
:10059C0001337B607B68062BF2D9012300220921F1
:1005AC00412000F04FFA012300220421422000F0E8
:1005BC0049FA00BF0837BD4680BD000080B582B047
:1005CC0000AF00237B6009E07B68DBB20022194698
:1005DC00412000F0ADFA7B6801337B607B68062B11
:1005EC00F2D9904B1B68092B00F2178101A252F82B
:1005FC0023F000BF29060008670600087D060008E6
:10060C00B1060008E50600080F07000843070008BC
:10061C0081070008A1070008E90700080122002152
:10062C00412000F085FA01220121412000F080FADE
:10063C0001220221412000F07BFA012203214120FA
:10064C0000F076FA01220421412000F071FA012217
:10065C000521412000F06CFAE0E00122012141204B
:10066C0000F066FA01220221412000F061FAD5E087
:10067C0001220021412000F05BFA012201214120DE
:10068C0000F056FA01220321412000F051FA012218
:10069C000421412000F04CFA01220621412000F0F7
:1006AC0047FABBE001220021412000F041FA01226F
:1006BC000121412000F03CFA01220221412000F0EE
:1006CC0037FA01220321412000F032FA01220621DF
:1006DC00412000F02DFAA1E001220121412000F07F
:1006EC0027FA01220221412000F022FA01220521E1
:1006FC00412000F01DFA01220621412000F018FAD9
:10070C008CE001220021412000F012FA012202218A
:10071C00412000F00DFA01220321412000F008FADB
:10072C0001220521412000F003FA0122062141207B
:10073C0000F0FEF972E001220021412000F0F8F9EE
:10074C0001220221412000F0F3F901220321412072
:10075C0000F0EEF901220421412000F0E9F9012218
:10076C000521412000F0E4F901220621412000F08E
:10077C00DFF953E001220021412000F0D9F90122D8
:10078C000121412000F0D4F901220221412000F086
:10079C00CFF943E001220021412000F0C9F90122E8
:1007AC000121412000F0C4F901220221412000F076
:1007BC00BFF901220321412000F0BAF901220421E2
:1007CC00412000F0B5F901220521412000F0B0F9DB
:1007DC0001220621412000F0ABF91FE0012200218B
:1007EC00412000F0A5F901220121412000F0A0F9DF
:1007FC0001220221412000F09BF90122032141201A
:10080C0000F096F901220521412000F091F9012216
:10081C000621412000F08CF900E000BF00BF083732
:10082C00BD4680BD2C00002080B582B000AF00F02A
:10083C0081F8002000F08CF8012000F089F86E207F
:10084C0000F086F8154BDB68DBB21A460921412013
:10085C0000F0ACF9114BDB68DBB21A4604214220E4
:10086C0000F0A4F90A2000F0C7F8172000F0C4F833
:10087C00092000F043FA042000F040FAFFF77AFE5A
:10088C00FFF79CFE00237B6002E07B6801337B60FA
:10089C007B68034A9342F8D9F2E700BF003C014061
:1008AC003F420F0080B400AF084B1B68082B05D8E3
:1008BC00064B1B680133054A136002E0034B002210
:1008CC001A6000BFBD4680BC704700BF2C000020E2
:1008DC0080B400AF084B1B68002B05D0064B1B687F
:1008EC00013B054A136002E0034B09221A6000BF6A
:1008FC00BD4680BC704700BF2C00002080B500AF07
:10090C00FFF7D0FF034B5B69024A43F4007353615A
:10091C0000BF80BD003C014080B500AFFFF7D8FFA1
:10092C00034B5B69024A43F01003536100BF80BD67
:10093C00003C014080B400AF044B1B68034A43F0F9
:10094C000103136000BFBD4680BC704700380240F5
:10095C0080B485B000AF0346FB71FB795B09FB7378
:10096C00FB7903F01F03BB73FB7B032B36D801A26F
:10097C0052F823F091090008A7090008BD090008E6
:10098C00D3090008184B1B68BA7B012101FA02F24B
:10099C001146154A0B43136021E0144B1B68BA7BBC
:1009AC00012101FA02F21146104A0B43136016E0C2
:1009BC000F4B1B68BA7B012101FA02F211460C4A5B
:1009CC000B4313600BE00B4B1B68BA7B012101FA44
:1009DC0002F21146074A0B43136000E000BF00BF50
:1009EC001437BD4680BC7047303802403438024062
:1009FC00403802404438024080B485B000AF034612
:100A0C00FB71FB795F2B16D8FB795B09FB73FB79C8
:100A1C0003F01F03BB73FB7B094A52F823301A689F
:100A2C00BB7B012101FA03F31846FB7B044951F807
:100A3C00233002431A6000BF1437BD4680BC704798
:100A4C000C00002090B484B000AF04460846114658
:100A5C001A462346FB710346BB710B467B7113464A
:100A6C003B71FB79413BFB73FB7B254A52F82330EE
:100A7C00BB60BB681B68BA795200032101FA02F211
:100A8C00D2431A40BB681A60BB681B687979BA7983
:100A9C00520001FA02F21A43BB681A607B79012BEF
:100AAC0013D1BB685B68BA79012101FA02F2D24317
:100ABC001A40BB685A60BB685B683979BA7901FA2D
:100ACC0002F21A43BB685A6015E07B79002B12D1F5
:100ADC00BB68DB68BA79032101FA02F2D2431A40EF
:100AEC00BB68DA60BB68DB683979BA7901FA02F263
:100AFC001A43BB68DA6000BF1037BD4690BC704724
:100B0C001800002080B485B000AF0346FB71FB7960
:100B1C00413BFB73FB7B054A52F82330BB60BB683F
:100B2C001B6818461437BD4680BC7047180000205F
:100B3C0080B586B000AF0346FB710B46BB71134604
:100B4C007B71FB791846FFF7DDFF7861BB795B00A1
:100B5C007A6922FA03F3DBB203F00303FB74FB792B
:100B6C00413BBB74BB7C104A52F82330FB60FB7CCE
:100B7C00012B14D1FB685B69BA79012101FA02F2ED
:100B8C00D2431A40FB685A61FB685B697979BA7980
:100B9C0001FA02F21A43FB685A61002300E00123B8
:100BAC0018461837BD4680BD1800002080B485B0AB
:100BBC0000AF0346FB710B46BB7113467B71BB79CF
:100BCC00012202FA03F35AB297F9053013435BB2D0
:100BDC007B71FB79413B032B16D801A252F823F011
:100BEC00FD0B0008030C0008090C00080F0C000892
:100BFC000023FB7309E00123FB7306E00823FB735E
:100C0C0003E00923FB7300E000BFBB79032B17D86B
:100C1C00394B1B68BA7992000F2101FA02F2D243C8
:100C2C001146354A0B401360334B1B68F97BBA797C
:100C3C00920001FA02F211462F4A0B43136055E061
:100C4C00BB79072B19D82C4B5B68BA79043A920004
:100C5C000F2101FA02F2D2431146274A0B4053608E
:100C6C00254B5B68F97BBA79043A920001FA02F2DF
:100C7C001146214A0B43536038E0BB790B2B19D832
:100C8C001D4B9B68BA79083A92000F2101FA02F2C7
:100C9C00D2431146184A0B409360174B9B68F97B63
:100CAC00BA79083A920001FA02F21146124A0B4341
:100CBC0093601BE0BB790F2B18D80F4BDB68BA790C
:100CCC000C3A92000F2101FA02F2D24311460A4A61
:100CDC000B40D360084BDB68F97BBA790C3A920075
:100CEC0001FA02F21146044A0B43D36000BF1437D9
:100CFC00BD4680BC704700BF0038014080B483B053
:100D0C0000AF0346FB71074B1B68FA79012101FA0E
:100D1C0002F21146034A0B43136000BF0C37BD4669
:100D2C0080BC7047003C0140000000000000000047
:080D3C00010203040607080987
:100D440028000020000000000024F40000E100E07E
:100D540004E100E008E100E0000002400004024079
:080D640000080240000C0240EF
:040000050800019559
:00000001FF
