:020000040800F2
:1000000000000120050300080B030008110300088D
:1000100033030008390300085B03000800000000F8
:100020000000000000000000000000007D03000848
:100030008303000800000000890300088F03000804
:10004000AD030008AD030008AD030008AD030008D0
:10005000AD030008AD030008AD030008AD030008C0
:10006000AD030008AD0300083D090008AD0300081A
:10007000AD030008AD030008AD030008AD030008A0
:10008000AD030008AD030008AD0300080000000048
:10009000000000000000000000000000210900082E
:1000A000AD030008AD030008AD030008AD03000870
:1000B000AD030008AD030008AD030008AD03000860
:1000C000AD030008AD030008AD030008AD03000850
:1000D000AD030008AD030008AD03000800000000F8
:1000E000AD030008AD030008AD03000800000000E8
:1000F000000000000000000000000000AD03000848
:1001000000000000AD030008AD030008AD030008C7
:1001100000000000000000000000000000000000DF
:10012000AD030008AD030008AD030008AD030008EF
:10013000AD03000800000000000000000000000007
:10014000000000000000000000000000AD030008F7
:10015000AD030008AD030008AD030008AD030008BF
:10016000AD030008AD03000800000000000000001F
:10017000000000000000000000000000000000007F
:1001800000000000AD0300080000000000000000B7
:10019000AD03000880B596B000AF00F037F94F4BC3
:1001A0007B6524E07B6D1A1D7A651B683B647B6D63
:1001B0001A1D7A651B68FB637B6D1A1D7A651B68C7
:1001C000BB633B6C7B63FB6B3B63BB6BFB623B6B5F
:1001D000BB6207E07A6B131D7B63BB6A191DB962B2
:1001E00012681A60FA6ABB6A9A42F3D800BF7B6D44
:1001F0003B4A9342D6D33B4B3B651AE03B6D1A1DFD
:100200003A651B68BB643B6D1A1D3A651B687B64CD
:10021000BB6C7B627B6C3B627B6AFB6104E0FB69CD
:100220001A1DFA6100221A603A6AFB699A42F6D8EE
:1002300000BF3B6D2C4A9342E0D300F0F5F83A1D25
:1002400007F108031146184600F0CEF8274A284B5C
:10025000D31A9B103B610023FB6007E0244AFB6834
:1002600052F823309847FB680133FB603A69FB681A
:100270009A42F3DC1F4A204BD31A9B103B610023A8
:10028000FB6007E01C4AFB6852F823309847FB6884
:100290000133FB603A69FB689A42F3DC00BFBB683C
:1002A0007A681146184600F0C9FAF864134A144BEC
:1002B000D31A9B10BB61BB697B6108E07B69013B82
:1002C0000F4A52F8233098477B69013B7B617B6979
:1002D000002BF3DC00BFF86C00F080F8B4030008DA
:1002E000CC030008CC030008DC030008DC03000892
:1002F000DC030008DC030008DC030008DC03000862
:10030000DC0300082548004700BF80B400AFFEE7CB
:100310001EF0040F0CBFEFF30880EFF30980714665
:100320001F4A104700BF80B483B000AF78603960C7
:10033000FEE780B400AFFEE71EF0040F0CBFEFF342
:100340000880EFF309807146164A104700BF80B459
:1003500083B000AF78603960FEE71EF0040F0CBF79
:10036000EFF30880EFF3098071460F4A104700BF92
:1003700080B483B000AF78603960FEE780B400AF2E
:10038000FEE780B400AFFEE780B400AFFEE780B4C4
:1003900000AF00BFBD4680BC70470000950100085B
:1003A000270300084F0300087103000880B400AF62
:0203B000FEE766
:1003B400C40D0008000000201C000020C40D00082B
:1003C40000000010000000101C0000202400002089
:0803D400000000100000001001
:1003DC0080B582B000AF786000F03CF880B483B098
:1003EC0000AF786039607B6801221A603B68034A71
:1003FC001A6000BF0C37BD4680BC7047000000205F
:10040C0080B500AF00F02AF8024B034A9A6000BF97
:10041C0080BD00BF00ED00E00000000880B500AF1B
:10042C0000F028F800BF80BD80B400AFBFF34F8F41
:10043C0000BF064BDB6803F4E0620449044B134332
:10044C00CB60BFF34F8F00BF00BFFDE700ED00E0B6
:10045C000400FA0580B500AFFFF7E6FF80B400AFEB
:10046C00034B4FF000629A6000BFBD4680BC7047E2
:10047C0000ED00E080B487B000AF00233B610023A7
:10048C007B610223FB600023BB6002237B60344B47
:10049C009B6803F00C033B613B69082B11D03B6953
:1004AC00082B44D83B69002B03D03B69042B04D0A8
:1004BC003DE02C4B2C4A1A603DE02A4B2B4A1A602B
:1004CC0039E0274B5B689B0D03F00103BB60244BA9
:1004DC005B6803F03F037B60BB68002B0CD0234AA6
:1004EC007B68B2FBF3F31E4A52689209C2F308020E
:1004FC0002FB03F37B610BE01B4A7B68B2FBF3F35B
:10050C00174A52689209C2F3080202FB03F37B619B
:10051C00134B5B681B0C03F0030301335B00FB60A4
:10052C007A69FB68B2FBF3F30E4A136003E00D4BE0
:10053C000D4A1A6000BF0A4B9B681B0903F00F039E
:10054C000B4AD35C3B61074B1A683B6922FA03F3F5
:10055C00044A136000BF1C37BD4680BC704700BF07
:10056C0000380240080000200024F40000127A0039
:10057C00B40D000880B582B000AF00237B6009E0A9
:10058C007B68D9B200230122442000F097FA7B68E3
:10059C0001337B607B68062BF2D9022300220221F7
:1005AC00422000F08BFA022300220421422000F0AA
:1005BC0085FA002301220521432000F07FFA00BFB9
:1005CC000837BD4680BD000080B584B000AF7860B0
:1005DC000023FB6009E0FB68DBB2002219464420D3
:1005EC0000F0E2FAFB680133FB60FB68062BF2D9E2
:1005FC007B68092B00F2178101A252F823F000BF8F
:10060C00350600087306000889060008BD060008B8
:10061C00F10600081B0700084F0700088D070008AB
:10062C00AD070008F507000801220021442000F066
:10063C00BBFA01220121442000F0B6FA012202216A
:10064C00442000F0B1FA01220321442000F0ACFA5E
:10065C0001220421442000F0A7FA012205214420A4
:10066C0000F0A2FAE0E001220121442000F09CFA03
:10067C0001220221442000F097FAD5E0012200214A
:10068C00442000F091FA01220121442000F08CFA60
:10069C0001220321442000F087FA01220421442086
:1006AC0000F082FA01220621442000F07DFABBE022
:1006BC0001220021442000F077FA0122012144207C
:1006CC0000F072FA01220221442000F06DFA01229E
:1006DC000321442000F068FA01220621442000F096
:1006EC0063FAA1E001220121442000F05DFA01220D
:1006FC000221442000F058FA01220521442000F088
:10070C0053FA01220621442000F04EFA8CE001221B
:10071C000021442000F048FA01220221442000F07C
:10072C0043FA01220321442000F03EFA0122052164
:10073C00442000F039FA01220621442000F034FA5A
:10074C0072E001220021442000F02EFA0122022145
:10075C00442000F029FA01220321442000F024FA5D
:10076C0001220421442000F01FFA0122052144201B
:10077C0000F01AFA01220621442000F015FA53E089
:10078C0001220021442000F00FFA01220121442013
:10079C0000F00AFA01220221442000F005FA43E09D
:1007AC0001220021442000F0FFF901220121442004
:1007BC0000F0FAF901220221442000F0F5F901229F
:1007CC000321442000F0F0F901220421442000F020
:1007DC00EBF901220521442000F0E6F90122062163
:1007EC00442000F0E1F91FE001220021442000F038
:1007FC00DBF901220121442000F0D6F9012202216B
:10080C00442000F0D1F901220321442000F0CCF95E
:10081C0001220521442000F0C7F9012206214420C1
:10082C0000F0C2F900E000BF00BF1037BD4680BD2C
:10083C0080B582B000AF00F09DF8002000F0A8F861
:10084C00012000F0A5F8032000F0A2F8022000F02F
:10085C009FF86E2000F09CF80A2000F0EDF81720AD
:10086C0000F0EAF8124BDB68DBB21A460221422098
:10087C0000F0D6F90E4BDB68DBB21A46042142209D
:10088C0000F0CEF9FFF776FE042000F077FA094B62
:10089C001B681846FFF798FE00237B6002E07B681C
:1008AC0001337B607B68044A9342F8D9EFE700BFC1
:1008BC00003C0140200000203F420F0080B400AFFC
:1008CC00084B1B68082B05D8064B1B680133054ADF
:1008DC00136002E0034B00221A6000BFBD4680BCCF
:1008EC00704700BF2000002080B400AF084B1B688D
:1008FC00002B05D0064B1B68013B054A136002E038
:10090C00034B09221A6000BFBD4680BC704700BF74
:10091C002000002080B500AF044B5B69034A43F014
:10092C0004035361FFF7CAFF00BF80BD003C0140C8
:10093C0080B582B000AF01220521432000F034F9CC
:10094C0000237B6002E07B6801337B607B68074A95
:10095C009342F8D9064B5B69054A43F01003536187
:10096C00FFF7C2FF00BF0837BD4680BD9F86010060
:10097C00003C014080B400AF044B1B68034A43F0B9
:10098C000103136000BFBD4680BC704700380240B5
:10099C0080B485B000AF0346FB71FB795B09FB7338
:1009AC00FB7903F01F03BB73FB7B032B36D801A22F
:1009BC0052F823F0D1090008E7090008FD090008E6
:1009CC00130A0008184B1B68BA7B012101FA02F2CA
:1009DC001146154A0B43136021E0144B1B68BA7B7C
:1009EC00012101FA02F21146104A0B43136016E082
:1009FC000F4B1B68BA7B012101FA02F211460C4A1B
:100A0C000B4313600BE00B4B1B68BA7B012101FA03
:100A1C0002F21146074A0B43136000E000BF00BF0F
:100A2C001437BD4680BC7047303802403438024021
:100A3C00403802404438024080B483B000AF0346D3
:100A4C00FB71FB791F2B0AD8194B1B68FA79012112
:100A5C0001FA02F21146164A0B43136022E0FB79AD
:100A6C001F2B0ED9FB793F2B0BD8124B1B68FA7935
:100A7C00203A012101FA02F211460E4A0B4313608F
:100A8C0010E0FB793F2B0DD9FB795F2B0AD80A4B71
:100A9C001B68FA79403A012101FA02F21146064A22
:100AAC000B43136000BF0C37BD4680BC704700BFC2
:100ABC0000E100E004E100E008E100E090B484B063
:100ACC0000AF0446084611461A462346FB710346FE
:100ADC00BB710B467B7113463B71FB79413BFB733E
:100AEC00FB7B254A52F82330BB60BB681B68BA7984
:100AFC005200032101FA02F2D2431A40BB681A6079
:100B0C00BB681B687979BA79520001FA02F21A4370
:100B1C00BB681A607B79012B13D1BB685B68BA790F
:100B2C00012101FA02F2D2431A40BB685A60BB6839
:100B3C005B683979BA7901FA02F21A43BB685A60D8
:100B4C0015E07B79002B12D1BB68DB68BA790321E5
:100B5C0001FA02F2D2431A40BB68DA60BB68DB6868
:100B6C003979BA7901FA02F21A43BB68DA6000BF2C
:100B7C001037BD4690BC70470C00002080B485B087
:100B8C0000AF0346FB71FB79413BFB73FB7B054AD2
:100B9C0052F82330BB60BB681B6818461437BD463F
:100BAC0080BC70470C00002080B586B000AF0346B7
:100BBC00FB710B46BB7113467B71FB791846FFF733
:100BCC00DDFF7861BB795B007A6922FA03F3DBB253
:100BDC0003F00303FB74FB79413BBB74BB7C0F4AF2
:100BEC0052F82330FB60FB7C012B13D1FB685B6953
:100BFC00BA79012101FA02F2D2431A40FB685A6118
:100C0C00FB685B697979BA7901FA02F21A43FB68DD
:100C1C005A6100E000BF1837BD4680BD0C000020B3
:100C2C0080B485B000AF0346FB710B46BB71134615
:100C3C007B71FB79413B032B16D801A252F823F0B0
:100C4C005D0C0008630C0008690C00086F0C0008B0
:100C5C000023FB8109E00123FB8106E00223FB81D9
:100C6C0003E00323FB8100E000BFBB79032B17D803
:100C7C003E4B1B68BA7992000F2101FA02F2D24363
:100C8C0011463A4A0B401360384B1B68F989BA7904
:100C9C00920001FA02F21146344A0B43136055E0FC
:100CAC00BB79072B19D8324B1B68BA79043A9200DE
:100CBC000F2101FA02F2D24311462D4A0B40136068
:100CCC002B4B1B68F989BA79043A920001FA02F2AB
:100CDC001146274A0B43136038E0BB790B2B19D80C
:100CEC00244B1B68BA79083A92000F2101FA02F2E0
:100CFC00D24311461F4A0B4013601E4B1B68F989E7
:100D0C00BA79083A920001FA02F21146194A0B43D9
:100D1C0013601BE0BB790F2B18D8174B1B68BA79E3
:100D2C000C3A92000F2101FA02F2D2431146124AF8
:100D3C000B401360104B1B68F989BA790C3A92007E
:100D4C0001FA02F211460C4A0B431360BB790122E3
:100D5C0002FA03F35AB297F9053013435BB27B7175
:100D6C0000BF1437BD4680BC704700BF0838014037
:100D7C000C380140103801401438014080B483B065
:100D8C0000AF0346FB71074B1B68FA79012101FA8E
:100D9C0002F21146034A0B43136000BF0C37BD46E9
:100DAC0080BC7047003C01400000000000000000C7
:080DBC00010203040607080907
:100DC4001C000020000000000024F4000000024089
:0C0DD4000004024000080240000C024035
:040000050800019559
:00000001FF
